{
  "contractName": "NftTradingPlatform",
  "abi": [
    {
      "inputs": [],
      "stateMutability": "nonpayable",
      "type": "constructor"
    },
    {
      "anonymous": false,
      "inputs": [
        {
          "indexed": true,
          "internalType": "address",
          "name": "owner",
          "type": "address"
        },
        {
          "indexed": true,
          "internalType": "address",
          "name": "approved",
          "type": "address"
        },
        {
          "indexed": true,
          "internalType": "uint256",
          "name": "tokenId",
          "type": "uint256"
        }
      ],
      "name": "Approval",
      "type": "event"
    },
    {
      "anonymous": false,
      "inputs": [
        {
          "indexed": true,
          "internalType": "address",
          "name": "owner",
          "type": "address"
        },
        {
          "indexed": true,
          "internalType": "address",
          "name": "operator",
          "type": "address"
        },
        {
          "indexed": false,
          "internalType": "bool",
          "name": "approved",
          "type": "bool"
        }
      ],
      "name": "ApprovalForAll",
      "type": "event"
    },
    {
      "anonymous": false,
      "inputs": [
        {
          "indexed": false,
          "internalType": "address",
          "name": "_seller",
          "type": "address"
        },
        {
          "indexed": false,
          "internalType": "address",
          "name": "_buyer",
          "type": "address"
        },
        {
          "indexed": false,
          "internalType": "uint256",
          "name": "_price",
          "type": "uint256"
        }
      ],
      "name": "NftBought",
      "type": "event"
    },
    {
      "anonymous": false,
      "inputs": [
        {
          "indexed": true,
          "internalType": "address",
          "name": "previousOwner",
          "type": "address"
        },
        {
          "indexed": true,
          "internalType": "address",
          "name": "newOwner",
          "type": "address"
        }
      ],
      "name": "OwnershipTransferred",
      "type": "event"
    },
    {
      "anonymous": false,
      "inputs": [
        {
          "indexed": false,
          "internalType": "address",
          "name": "",
          "type": "address"
        },
        {
          "indexed": false,
          "internalType": "uint256",
          "name": "",
          "type": "uint256"
        }
      ],
      "name": "Received",
      "type": "event"
    },
    {
      "anonymous": false,
      "inputs": [
        {
          "indexed": false,
          "internalType": "uint256",
          "name": "tokenId",
          "type": "uint256"
        },
        {
          "indexed": false,
          "internalType": "string",
          "name": "uri",
          "type": "string"
        }
      ],
      "name": "TokenCreated",
      "type": "event"
    },
    {
      "anonymous": false,
      "inputs": [
        {
          "indexed": true,
          "internalType": "address",
          "name": "from",
          "type": "address"
        },
        {
          "indexed": true,
          "internalType": "address",
          "name": "to",
          "type": "address"
        },
        {
          "indexed": true,
          "internalType": "uint256",
          "name": "tokenId",
          "type": "uint256"
        }
      ],
      "name": "Transfer",
      "type": "event"
    },
    {
      "inputs": [
        {
          "internalType": "address",
          "name": "to",
          "type": "address"
        },
        {
          "internalType": "uint256",
          "name": "tokenId",
          "type": "uint256"
        }
      ],
      "name": "approve",
      "outputs": [],
      "stateMutability": "nonpayable",
      "type": "function"
    },
    {
      "inputs": [
        {
          "internalType": "address",
          "name": "owner",
          "type": "address"
        }
      ],
      "name": "balanceOf",
      "outputs": [
        {
          "internalType": "uint256",
          "name": "",
          "type": "uint256"
        }
      ],
      "stateMutability": "view",
      "type": "function",
      "constant": true
    },
    {
      "inputs": [
        {
          "internalType": "uint256",
          "name": "tokenId",
          "type": "uint256"
        }
      ],
      "name": "getApproved",
      "outputs": [
        {
          "internalType": "address",
          "name": "",
          "type": "address"
        }
      ],
      "stateMutability": "view",
      "type": "function",
      "constant": true
    },
    {
      "inputs": [
        {
          "internalType": "address",
          "name": "owner",
          "type": "address"
        },
        {
          "internalType": "address",
          "name": "operator",
          "type": "address"
        }
      ],
      "name": "isApprovedForAll",
      "outputs": [
        {
          "internalType": "bool",
          "name": "",
          "type": "bool"
        }
      ],
      "stateMutability": "view",
      "type": "function",
      "constant": true
    },
    {
      "inputs": [],
      "name": "name",
      "outputs": [
        {
          "internalType": "string",
          "name": "",
          "type": "string"
        }
      ],
      "stateMutability": "view",
      "type": "function",
      "constant": true
    },
    {
      "inputs": [],
      "name": "owner",
      "outputs": [
        {
          "internalType": "address",
          "name": "",
          "type": "address"
        }
      ],
      "stateMutability": "view",
      "type": "function",
      "constant": true
    },
    {
      "inputs": [
        {
          "internalType": "uint256",
          "name": "tokenId",
          "type": "uint256"
        }
      ],
      "name": "ownerOf",
      "outputs": [
        {
          "internalType": "address",
          "name": "",
          "type": "address"
        }
      ],
      "stateMutability": "view",
      "type": "function",
      "constant": true
    },
    {
      "inputs": [],
      "name": "renounceOwnership",
      "outputs": [],
      "stateMutability": "nonpayable",
      "type": "function"
    },
    {
      "inputs": [
        {
          "internalType": "address",
          "name": "from",
          "type": "address"
        },
        {
          "internalType": "address",
          "name": "to",
          "type": "address"
        },
        {
          "internalType": "uint256",
          "name": "tokenId",
          "type": "uint256"
        }
      ],
      "name": "safeTransferFrom",
      "outputs": [],
      "stateMutability": "nonpayable",
      "type": "function"
    },
    {
      "inputs": [
        {
          "internalType": "address",
          "name": "from",
          "type": "address"
        },
        {
          "internalType": "address",
          "name": "to",
          "type": "address"
        },
        {
          "internalType": "uint256",
          "name": "tokenId",
          "type": "uint256"
        },
        {
          "internalType": "bytes",
          "name": "_data",
          "type": "bytes"
        }
      ],
      "name": "safeTransferFrom",
      "outputs": [],
      "stateMutability": "nonpayable",
      "type": "function"
    },
    {
      "inputs": [
        {
          "internalType": "address",
          "name": "operator",
          "type": "address"
        },
        {
          "internalType": "bool",
          "name": "approved",
          "type": "bool"
        }
      ],
      "name": "setApprovalForAll",
      "outputs": [],
      "stateMutability": "nonpayable",
      "type": "function"
    },
    {
      "inputs": [
        {
          "internalType": "bytes4",
          "name": "interfaceId",
          "type": "bytes4"
        }
      ],
      "name": "supportsInterface",
      "outputs": [
        {
          "internalType": "bool",
          "name": "",
          "type": "bool"
        }
      ],
      "stateMutability": "view",
      "type": "function",
      "constant": true
    },
    {
      "inputs": [],
      "name": "symbol",
      "outputs": [
        {
          "internalType": "string",
          "name": "",
          "type": "string"
        }
      ],
      "stateMutability": "view",
      "type": "function",
      "constant": true
    },
    {
      "inputs": [
        {
          "internalType": "uint256",
          "name": "tokenId",
          "type": "uint256"
        }
      ],
      "name": "tokenURI",
      "outputs": [
        {
          "internalType": "string",
          "name": "",
          "type": "string"
        }
      ],
      "stateMutability": "view",
      "type": "function",
      "constant": true
    },
    {
      "inputs": [
        {
          "internalType": "address",
          "name": "from",
          "type": "address"
        },
        {
          "internalType": "address",
          "name": "to",
          "type": "address"
        },
        {
          "internalType": "uint256",
          "name": "tokenId",
          "type": "uint256"
        }
      ],
      "name": "transferFrom",
      "outputs": [],
      "stateMutability": "nonpayable",
      "type": "function"
    },
    {
      "inputs": [
        {
          "internalType": "address",
          "name": "newOwner",
          "type": "address"
        }
      ],
      "name": "transferOwnership",
      "outputs": [],
      "stateMutability": "nonpayable",
      "type": "function"
    },
    {
      "stateMutability": "payable",
      "type": "receive",
      "payable": true
    },
    {
      "inputs": [
        {
          "internalType": "string",
          "name": "tokenURI",
          "type": "string"
        }
      ],
      "name": "createToken",
      "outputs": [],
      "stateMutability": "nonpayable",
      "type": "function"
    },
    {
      "inputs": [
        {
          "internalType": "uint256",
          "name": "tokenId",
          "type": "uint256"
        },
        {
          "internalType": "uint256",
          "name": "price",
          "type": "uint256"
        }
      ],
      "name": "setTokenPrice",
      "outputs": [],
      "stateMutability": "nonpayable",
      "type": "function"
    },
    {
      "inputs": [
        {
          "internalType": "uint256",
          "name": "tokenId",
          "type": "uint256"
        }
      ],
      "name": "getTokenPrice",
      "outputs": [
        {
          "internalType": "uint256",
          "name": "",
          "type": "uint256"
        }
      ],
      "stateMutability": "view",
      "type": "function",
      "constant": true
    },
    {
      "inputs": [],
      "name": "getItems",
      "outputs": [
        {
          "components": [
            {
              "internalType": "uint256",
              "name": "id",
              "type": "uint256"
            },
            {
              "internalType": "uint256",
              "name": "price",
              "type": "uint256"
            },
            {
              "internalType": "address payable",
              "name": "owner",
              "type": "address"
            }
          ],
          "internalType": "struct NftTradingPlatform.Item[]",
          "name": "",
          "type": "tuple[]"
        }
      ],
      "stateMutability": "view",
      "type": "function",
      "constant": true
    },
    {
      "inputs": [
        {
          "internalType": "uint256",
          "name": "tokenId",
          "type": "uint256"
        }
      ],
      "name": "buy",
      "outputs": [],
      "stateMutability": "payable",
      "type": "function",
      "payable": true
    }
  ],
  "bytecode": "0x60806040526005600a553480156200001657600080fd5b506040518060400160405280601481526020017f4e46542054726164696e6720506c6174666f726d0000000000000000000000008152506040518060400160405280600581526020017f4e4654545000000000000000000000000000000000000000000000000000000081525081600090805190602001906200009b929190620001ab565b508060019080519060200190620000b4929190620001ab565b505050620000d7620000cb620000dd60201b60201c565b620000e560201b60201c565b620002c0565b600033905090565b6000600760009054906101000a900473ffffffffffffffffffffffffffffffffffffffff16905081600760006101000a81548173ffffffffffffffffffffffffffffffffffffffff021916908373ffffffffffffffffffffffffffffffffffffffff1602179055508173ffffffffffffffffffffffffffffffffffffffff168173ffffffffffffffffffffffffffffffffffffffff167f8be0079c531659141344cd1fd0a4f28419497f9722a3daafe3b4186f6b6457e060405160405180910390a35050565b828054620001b9906200025b565b90600052602060002090601f016020900481019282620001dd576000855562000229565b82601f10620001f857805160ff191683800117855562000229565b8280016001018555821562000229579182015b82811115620002285782518255916020019190600101906200020b565b5b5090506200023891906200023c565b5090565b5b80821115620002575760008160009055506001016200023d565b5090565b600060028204905060018216806200027457607f821691505b602082108114156200028b576200028a62000291565b5b50919050565b7f4e487b7100000000000000000000000000000000000000000000000000000000600052602260045260246000fd5b613c0f80620002d06000396000f3fe60806040526004361061012e5760003560e01c8063715018a6116100ab578063c457fb371161006f578063c457fb3714610420578063c87b56dd1461045d578063d96a094a1461049a578063e985e9c5146104b6578063eb685c47146104f3578063f2fde38b1461051c5761016e565b8063715018a6146103615780638da5cb5b1461037857806395d89b41146103a3578063a22cb465146103ce578063b88d4fde146103f75761016e565b8063410d59cc116100f2578063410d59cc1461026a57806342842e0e1461029557806345576f94146102be5780636352211e146102e757806370a08231146103245761016e565b806301ffc9a71461017357806306fdde03146101b0578063081812fc146101db578063095ea7b31461021857806323b872dd146102415761016e565b3661016e577f88a5966d370b9919b20f3e2c13ff65706f196a4e32cc2c12bf57088f885258743334604051610164929190612dea565b60405180910390a1005b600080fd5b34801561017f57600080fd5b5061019a60048036038101906101959190612779565b610545565b6040516101a79190612e35565b60405180910390f35b3480156101bc57600080fd5b506101c5610627565b6040516101d29190612e50565b60405180910390f35b3480156101e757600080fd5b5061020260048036038101906101fd919061280c565b6106b9565b60405161020f9190612d4c565b60405180910390f35b34801561022457600080fd5b5061023f600480360381019061023a919061273d565b61073e565b005b34801561024d57600080fd5b5061026860048036038101906102639190612637565b610856565b005b34801561027657600080fd5b5061027f6108b6565b60405161028c9190612e13565b60405180910390f35b3480156102a157600080fd5b506102bc60048036038101906102b79190612637565b61097f565b005b3480156102ca57600080fd5b506102e560048036038101906102e091906127cb565b61099f565b005b3480156102f357600080fd5b5061030e6004803603810190610309919061280c565b610b48565b60405161031b9190612d4c565b60405180910390f35b34801561033057600080fd5b5061034b600480360381019061034691906125d2565b610bfa565b6040516103589190613132565b60405180910390f35b34801561036d57600080fd5b50610376610cb2565b005b34801561038457600080fd5b5061038d610d3a565b60405161039a9190612d4c565b60405180910390f35b3480156103af57600080fd5b506103b8610d64565b6040516103c59190612e50565b60405180910390f35b3480156103da57600080fd5b506103f560048036038101906103f09190612701565b610df6565b005b34801561040357600080fd5b5061041e60048036038101906104199190612686565b610f77565b005b34801561042c57600080fd5b506104476004803603810190610442919061280c565b610fd9565b6040516104549190613132565b60405180910390f35b34801561046957600080fd5b50610484600480360381019061047f919061280c565b611054565b6040516104919190612e50565b60405180910390f35b6104b460048036038101906104af919061280c565b6111a6565b005b3480156104c257600080fd5b506104dd60048036038101906104d891906125fb565b611441565b6040516104ea9190612e35565b60405180910390f35b3480156104ff57600080fd5b5061051a60048036038101906105159190612835565b6114d5565b005b34801561052857600080fd5b50610543600480360381019061053e91906125d2565b61168b565b005b60007f80ac58cd000000000000000000000000000000000000000000000000000000007bffffffffffffffffffffffffffffffffffffffffffffffffffffffff1916827bffffffffffffffffffffffffffffffffffffffffffffffffffffffff1916148061061057507f5b5e139f000000000000000000000000000000000000000000000000000000007bffffffffffffffffffffffffffffffffffffffffffffffffffffffff1916827bffffffffffffffffffffffffffffffffffffffffffffffffffffffff1916145b80610620575061061f82611783565b5b9050919050565b60606000805461063690613439565b80601f016020809104026020016040519081016040528092919081815260200182805461066290613439565b80156106af5780601f10610684576101008083540402835291602001916106af565b820191906000526020600020905b81548152906001019060200180831161069257829003601f168201915b5050505050905090565b60006106c4826117ed565b610703576040517f08c379a00000000000000000000000000000000000000000000000000000000081526004016106fa90613032565b60405180910390fd5b6004600083815260200190815260200160002060009054906101000a900473ffffffffffffffffffffffffffffffffffffffff169050919050565b600061074982610b48565b90508073ffffffffffffffffffffffffffffffffffffffff168373ffffffffffffffffffffffffffffffffffffffff1614156107ba576040517f08c379a00000000000000000000000000000000000000000000000000000000081526004016107b1906130b2565b60405180910390fd5b8073ffffffffffffffffffffffffffffffffffffffff166107d9611859565b73ffffffffffffffffffffffffffffffffffffffff161480610808575061080781610802611859565b611441565b5b610847576040517f08c379a000000000000000000000000000000000000000000000000000000000815260040161083e90612f72565b60405180910390fd5b6108518383611861565b505050565b610867610861611859565b8261191a565b6108a6576040517f08c379a000000000000000000000000000000000000000000000000000000000815260040161089d906130f2565b60405180910390fd5b6108b18383836119f8565b505050565b60606008805480602002602001604051908101604052809291908181526020016000905b82821015610976578382906000526020600020906003020160405180606001604052908160008201548152602001600182015481526020016002820160009054906101000a900473ffffffffffffffffffffffffffffffffffffffff1673ffffffffffffffffffffffffffffffffffffffff1673ffffffffffffffffffffffffffffffffffffffff1681525050815260200190600101906108da565b50505050905090565b61099a83838360405180602001604052806000815250610f77565b505050565b6109a9600b611c54565b60006127106109b8600b611c6a565b6109c29190613280565b90506109ce3382611c78565b6109d88183611e46565b60006040518060600160405280838152602001600a5481526020013373ffffffffffffffffffffffffffffffffffffffff1681525090506008819080600181540180825580915050600190039060005260206000209060030201600090919091909150600082015181600001556020820151816001015560408201518160020160006101000a81548173ffffffffffffffffffffffffffffffffffffffff021916908373ffffffffffffffffffffffffffffffffffffffff16021790555050508060096000848152602001908152602001600020600082015181600001556020820151816001015560408201518160020160006101000a81548173ffffffffffffffffffffffffffffffffffffffff021916908373ffffffffffffffffffffffffffffffffffffffff1602179055509050507f5d3ac5872118b949a1f8db596134a0e1587ecf18f2203bb1e3ea420c3c3f8fa98284604051610b3b92919061314d565b60405180910390a1505050565b6000806002600084815260200190815260200160002060009054906101000a900473ffffffffffffffffffffffffffffffffffffffff169050600073ffffffffffffffffffffffffffffffffffffffff168173ffffffffffffffffffffffffffffffffffffffff161415610bf1576040517f08c379a0000000000000000000000000000000000000000000000000000000008152600401610be890612fb2565b60405180910390fd5b80915050919050565b60008073ffffffffffffffffffffffffffffffffffffffff168273ffffffffffffffffffffffffffffffffffffffff161415610c6b576040517f08c379a0000000000000000000000000000000000000000000000000000000008152600401610c6290612f92565b60405180910390fd5b600360008373ffffffffffffffffffffffffffffffffffffffff1673ffffffffffffffffffffffffffffffffffffffff168152602001908152602001600020549050919050565b610cba611859565b73ffffffffffffffffffffffffffffffffffffffff16610cd8610d3a565b73ffffffffffffffffffffffffffffffffffffffff1614610d2e576040517f08c379a0000000000000000000000000000000000000000000000000000000008152600401610d2590613052565b60405180910390fd5b610d386000611eba565b565b6000600760009054906101000a900473ffffffffffffffffffffffffffffffffffffffff16905090565b606060018054610d7390613439565b80601f0160208091040260200160405190810160405280929190818152602001828054610d9f90613439565b8015610dec5780601f10610dc157610100808354040283529160200191610dec565b820191906000526020600020905b815481529060010190602001808311610dcf57829003601f168201915b5050505050905090565b610dfe611859565b73ffffffffffffffffffffffffffffffffffffffff168273ffffffffffffffffffffffffffffffffffffffff161415610e6c576040517f08c379a0000000000000000000000000000000000000000000000000000000008152600401610e6390612f12565b60405180910390fd5b8060056000610e79611859565b73ffffffffffffffffffffffffffffffffffffffff1673ffffffffffffffffffffffffffffffffffffffff16815260200190815260200160002060008473ffffffffffffffffffffffffffffffffffffffff1673ffffffffffffffffffffffffffffffffffffffff16815260200190815260200160002060006101000a81548160ff0219169083151502179055508173ffffffffffffffffffffffffffffffffffffffff16610f26611859565b73ffffffffffffffffffffffffffffffffffffffff167f17307eab39ab6107e8899845ad3d59bd9653f200f220920489ca2b5937696c3183604051610f6b9190612e35565b60405180910390a35050565b610f88610f82611859565b8361191a565b610fc7576040517f08c379a0000000000000000000000000000000000000000000000000000000008152600401610fbe906130f2565b60405180910390fd5b610fd384848484611f80565b50505050565b6000816000600960008381526020019081526020016000206000015411611035576040517f08c379a000000000000000000000000000000000000000000000000000000000815260040161102c90612f32565b60405180910390fd5b6009600084815260200190815260200160002060010154915050919050565b606061105f826117ed565b61109e576040517f08c379a000000000000000000000000000000000000000000000000000000000815260040161109590613012565b60405180910390fd5b60006006600084815260200190815260200160002080546110be90613439565b80601f01602080910402602001604051908101604052809291908181526020018280546110ea90613439565b80156111375780601f1061110c57610100808354040283529160200191611137565b820191906000526020600020905b81548152906001019060200180831161111a57829003601f168201915b505050505090506000611148611fdc565b905060008151141561115e5781925050506111a1565b60008251111561119357808260405160200161117b929190612d28565b604051602081830303815290604052925050506111a1565b61119c84611ff3565b925050505b919050565b600060096000838152602001908152602001600020905060008160010154905060008260020160009054906101000a900473ffffffffffffffffffffffffffffffffffffffff16905081341015611232576040517f08c379a000000000000000000000000000000000000000000000000000000000815260040161122990612eb2565b60405180910390fd5b60008173ffffffffffffffffffffffffffffffffffffffff166108fc849081150290604051600060405180830381858888f193505050509050806112ab576040517f08c379a00000000000000000000000000000000000000000000000000000000081526004016112a290613112565b60405180910390fd5b6112b68233876119f8565b6000339050808560020160006101000a81548173ffffffffffffffffffffffffffffffffffffffff021916908373ffffffffffffffffffffffffffffffffffffffff16021790555060005b6008805490508110156113fd578660088281548110611349577f4e487b7100000000000000000000000000000000000000000000000000000000600052603260045260246000fd5b90600052602060002090600302016000015414156113ec57816008828154811061139c577f4e487b7100000000000000000000000000000000000000000000000000000000600052603260045260246000fd5b906000526020600020906003020160020160006101000a81548173ffffffffffffffffffffffffffffffffffffffff021916908373ffffffffffffffffffffffffffffffffffffffff1602179055505b806113f69061349c565b9050611301565b507f608f6ac9327c2bf4d3c77adf447d2c448ba7b0971e0aaa9aa03f7ac29d874a4483333460405161143193929190612d67565b60405180910390a1505050505050565b6000600560008473ffffffffffffffffffffffffffffffffffffffff1673ffffffffffffffffffffffffffffffffffffffff16815260200190815260200160002060008373ffffffffffffffffffffffffffffffffffffffff1673ffffffffffffffffffffffffffffffffffffffff16815260200190815260200160002060009054906101000a900460ff16905092915050565b81600060096000838152602001908152602001600020600001541161152f576040517f08c379a000000000000000000000000000000000000000000000000000000000815260040161152690612f32565b60405180910390fd5b61153883610b48565b73ffffffffffffffffffffffffffffffffffffffff163373ffffffffffffffffffffffffffffffffffffffff16146115a5576040517f08c379a000000000000000000000000000000000000000000000000000000000815260040161159c906130d2565b60405180910390fd5b81600960008581526020019081526020016000206001018190555060005b60088054905081101561168557836008828154811061160b577f4e487b7100000000000000000000000000000000000000000000000000000000600052603260045260246000fd5b906000526020600020906003020160000154141561167457826008828154811061165e577f4e487b7100000000000000000000000000000000000000000000000000000000600052603260045260246000fd5b9060005260206000209060030201600101819055505b8061167e9061349c565b90506115c3565b50505050565b611693611859565b73ffffffffffffffffffffffffffffffffffffffff166116b1610d3a565b73ffffffffffffffffffffffffffffffffffffffff1614611707576040517f08c379a00000000000000000000000000000000000000000000000000000000081526004016116fe90613052565b60405180910390fd5b600073ffffffffffffffffffffffffffffffffffffffff168173ffffffffffffffffffffffffffffffffffffffff161415611777576040517f08c379a000000000000000000000000000000000000000000000000000000000815260040161176e90612e92565b60405180910390fd5b61178081611eba565b50565b60007f01ffc9a7000000000000000000000000000000000000000000000000000000007bffffffffffffffffffffffffffffffffffffffffffffffffffffffff1916827bffffffffffffffffffffffffffffffffffffffffffffffffffffffff1916149050919050565b60008073ffffffffffffffffffffffffffffffffffffffff166002600084815260200190815260200160002060009054906101000a900473ffffffffffffffffffffffffffffffffffffffff1673ffffffffffffffffffffffffffffffffffffffff1614159050919050565b600033905090565b816004600083815260200190815260200160002060006101000a81548173ffffffffffffffffffffffffffffffffffffffff021916908373ffffffffffffffffffffffffffffffffffffffff160217905550808273ffffffffffffffffffffffffffffffffffffffff166118d483610b48565b73ffffffffffffffffffffffffffffffffffffffff167f8c5be1e5ebec7d5bd14f71427d1e84f3dd0314c0f7b2291e5b200ac8c7c3b92560405160405180910390a45050565b6000611925826117ed565b611964576040517f08c379a000000000000000000000000000000000000000000000000000000000815260040161195b90612f52565b60405180910390fd5b600061196f83610b48565b90508073ffffffffffffffffffffffffffffffffffffffff168473ffffffffffffffffffffffffffffffffffffffff1614806119de57508373ffffffffffffffffffffffffffffffffffffffff166119c6846106b9565b73ffffffffffffffffffffffffffffffffffffffff16145b806119ef57506119ee8185611441565b5b91505092915050565b8273ffffffffffffffffffffffffffffffffffffffff16611a1882610b48565b73ffffffffffffffffffffffffffffffffffffffff1614611a6e576040517f08c379a0000000000000000000000000000000000000000000000000000000008152600401611a6590613072565b60405180910390fd5b600073ffffffffffffffffffffffffffffffffffffffff168273ffffffffffffffffffffffffffffffffffffffff161415611ade576040517f08c379a0000000000000000000000000000000000000000000000000000000008152600401611ad590612ef2565b60405180910390fd5b611ae983838361209a565b611af4600082611861565b6001600360008573ffffffffffffffffffffffffffffffffffffffff1673ffffffffffffffffffffffffffffffffffffffff1681526020019081526020016000206000828254611b449190613307565b925050819055506001600360008473ffffffffffffffffffffffffffffffffffffffff1673ffffffffffffffffffffffffffffffffffffffff1681526020019081526020016000206000828254611b9b9190613280565b92505081905550816002600083815260200190815260200160002060006101000a81548173ffffffffffffffffffffffffffffffffffffffff021916908373ffffffffffffffffffffffffffffffffffffffff160217905550808273ffffffffffffffffffffffffffffffffffffffff168473ffffffffffffffffffffffffffffffffffffffff167fddf252ad1be2c89b69c2b068fc378daa952ba7f163c4a11628f55a4df523b3ef60405160405180910390a4505050565b6001816000016000828254019250508190555050565b600081600001549050919050565b600073ffffffffffffffffffffffffffffffffffffffff168273ffffffffffffffffffffffffffffffffffffffff161415611ce8576040517f08c379a0000000000000000000000000000000000000000000000000000000008152600401611cdf90612ff2565b60405180910390fd5b611cf1816117ed565b15611d31576040517f08c379a0000000000000000000000000000000000000000000000000000000008152600401611d2890612ed2565b60405180910390fd5b611d3d6000838361209a565b6001600360008473ffffffffffffffffffffffffffffffffffffffff1673ffffffffffffffffffffffffffffffffffffffff1681526020019081526020016000206000828254611d8d9190613280565b92505081905550816002600083815260200190815260200160002060006101000a81548173ffffffffffffffffffffffffffffffffffffffff021916908373ffffffffffffffffffffffffffffffffffffffff160217905550808273ffffffffffffffffffffffffffffffffffffffff16600073ffffffffffffffffffffffffffffffffffffffff167fddf252ad1be2c89b69c2b068fc378daa952ba7f163c4a11628f55a4df523b3ef60405160405180910390a45050565b611e4f826117ed565b611e8e576040517f08c379a0000000000000000000000000000000000000000000000000000000008152600401611e8590612fd2565b60405180910390fd5b80600660008481526020019081526020016000209080519060200190611eb59291906123f6565b505050565b6000600760009054906101000a900473ffffffffffffffffffffffffffffffffffffffff16905081600760006101000a81548173ffffffffffffffffffffffffffffffffffffffff021916908373ffffffffffffffffffffffffffffffffffffffff1602179055508173ffffffffffffffffffffffffffffffffffffffff168173ffffffffffffffffffffffffffffffffffffffff167f8be0079c531659141344cd1fd0a4f28419497f9722a3daafe3b4186f6b6457e060405160405180910390a35050565b611f8b8484846119f8565b611f978484848461209f565b611fd6576040517f08c379a0000000000000000000000000000000000000000000000000000000008152600401611fcd90612e72565b60405180910390fd5b50505050565b606060405180602001604052806000815250905090565b6060611ffe826117ed565b61203d576040517f08c379a000000000000000000000000000000000000000000000000000000000815260040161203490613092565b60405180910390fd5b6000612047611fdc565b905060008151116120675760405180602001604052806000815250612092565b8061207184612236565b604051602001612082929190612d28565b6040516020818303038152906040525b915050919050565b505050565b60006120c08473ffffffffffffffffffffffffffffffffffffffff166123e3565b15612229578373ffffffffffffffffffffffffffffffffffffffff1663150b7a026120e9611859565b8786866040518563ffffffff1660e01b815260040161210b9493929190612d9e565b602060405180830381600087803b15801561212557600080fd5b505af192505050801561215657506040513d601f19601f8201168201806040525081019061215391906127a2565b60015b6121d9573d8060008114612186576040519150601f19603f3d011682016040523d82523d6000602084013e61218b565b606091505b506000815114156121d1576040517f08c379a00000000000000000000000000000000000000000000000000000000081526004016121c890612e72565b60405180910390fd5b805181602001fd5b63150b7a0260e01b7bffffffffffffffffffffffffffffffffffffffffffffffffffffffff1916817bffffffffffffffffffffffffffffffffffffffffffffffffffffffff19161491505061222e565b600190505b949350505050565b6060600082141561227e576040518060400160405280600181526020017f300000000000000000000000000000000000000000000000000000000000000081525090506123de565b600082905060005b600082146122b05780806122999061349c565b915050600a826122a991906132d6565b9150612286565b60008167ffffffffffffffff8111156122f2577f4e487b7100000000000000000000000000000000000000000000000000000000600052604160045260246000fd5b6040519080825280601f01601f1916602001820160405280156123245781602001600182028036833780820191505090505b5090505b600085146123d75760018261233d9190613307565b9150600a8561234c91906134e5565b60306123589190613280565b60f81b818381518110612394577f4e487b7100000000000000000000000000000000000000000000000000000000600052603260045260246000fd5b60200101907effffffffffffffffffffffffffffffffffffffffffffffffffffffffffffff1916908160001a905350600a856123d091906132d6565b9450612328565b8093505050505b919050565b600080823b905060008111915050919050565b82805461240290613439565b90600052602060002090601f016020900481019282612424576000855561246b565b82601f1061243d57805160ff191683800117855561246b565b8280016001018555821561246b579182015b8281111561246a57825182559160200191906001019061244f565b5b509050612478919061247c565b5090565b5b8082111561249557600081600090555060010161247d565b5090565b60006124ac6124a7846131a2565b61317d565b9050828152602081018484840111156124c457600080fd5b6124cf8482856133f7565b509392505050565b60006124ea6124e5846131d3565b61317d565b90508281526020810184848401111561250257600080fd5b61250d8482856133f7565b509392505050565b60008135905061252481613b7d565b92915050565b60008135905061253981613b94565b92915050565b60008135905061254e81613bab565b92915050565b60008151905061256381613bab565b92915050565b600082601f83011261257a57600080fd5b813561258a848260208601612499565b91505092915050565b600082601f8301126125a457600080fd5b81356125b48482602086016124d7565b91505092915050565b6000813590506125cc81613bc2565b92915050565b6000602082840312156125e457600080fd5b60006125f284828501612515565b91505092915050565b6000806040838503121561260e57600080fd5b600061261c85828601612515565b925050602061262d85828601612515565b9150509250929050565b60008060006060848603121561264c57600080fd5b600061265a86828701612515565b935050602061266b86828701612515565b925050604061267c868287016125bd565b9150509250925092565b6000806000806080858703121561269c57600080fd5b60006126aa87828801612515565b94505060206126bb87828801612515565b93505060406126cc878288016125bd565b925050606085013567ffffffffffffffff8111156126e957600080fd5b6126f587828801612569565b91505092959194509250565b6000806040838503121561271457600080fd5b600061272285828601612515565b92505060206127338582860161252a565b9150509250929050565b6000806040838503121561275057600080fd5b600061275e85828601612515565b925050602061276f858286016125bd565b9150509250929050565b60006020828403121561278b57600080fd5b60006127998482850161253f565b91505092915050565b6000602082840312156127b457600080fd5b60006127c284828501612554565b91505092915050565b6000602082840312156127dd57600080fd5b600082013567ffffffffffffffff8111156127f757600080fd5b61280384828501612593565b91505092915050565b60006020828403121561281e57600080fd5b600061282c848285016125bd565b91505092915050565b6000806040838503121561284857600080fd5b6000612856858286016125bd565b9250506020612867858286016125bd565b9150509250929050565b600061287d8383612cc8565b60608301905092915050565b612892816133c1565b82525050565b6128a18161334d565b82525050565b6128b08161333b565b82525050565b60006128c182613214565b6128cb8185613242565b93506128d683613204565b8060005b838110156129075781516128ee8882612871565b97506128f983613235565b9250506001810190506128da565b5085935050505092915050565b61291d8161335f565b82525050565b600061292e8261321f565b6129388185613253565b9350612948818560208601613406565b612951816135d2565b840191505092915050565b60006129678261322a565b6129718185613264565b9350612981818560208601613406565b61298a816135d2565b840191505092915050565b60006129a08261322a565b6129aa8185613275565b93506129ba818560208601613406565b80840191505092915050565b60006129d3603283613264565b91506129de826135e3565b604082019050919050565b60006129f6602683613264565b9150612a0182613632565b604082019050919050565b6000612a19601483613264565b9150612a2482613681565b602082019050919050565b6000612a3c601c83613264565b9150612a47826136aa565b602082019050919050565b6000612a5f602483613264565b9150612a6a826136d3565b604082019050919050565b6000612a82601983613264565b9150612a8d82613722565b602082019050919050565b6000612aa5600f83613264565b9150612ab08261374b565b602082019050919050565b6000612ac8602c83613264565b9150612ad382613774565b604082019050919050565b6000612aeb603883613264565b9150612af6826137c3565b604082019050919050565b6000612b0e602a83613264565b9150612b1982613812565b604082019050919050565b6000612b31602983613264565b9150612b3c82613861565b604082019050919050565b6000612b54602e83613264565b9150612b5f826138b0565b604082019050919050565b6000612b77602083613264565b9150612b82826138ff565b602082019050919050565b6000612b9a603183613264565b9150612ba582613928565b604082019050919050565b6000612bbd602c83613264565b9150612bc882613977565b604082019050919050565b6000612be0602083613264565b9150612beb826139c6565b602082019050919050565b6000612c03602983613264565b9150612c0e826139ef565b604082019050919050565b6000612c26602f83613264565b9150612c3182613a3e565b604082019050919050565b6000612c49602183613264565b9150612c5482613a8d565b604082019050919050565b6000612c6c601c83613264565b9150612c7782613adc565b602082019050919050565b6000612c8f603183613264565b9150612c9a82613b05565b604082019050919050565b6000612cb2600e83613264565b9150612cbd82613b54565b602082019050919050565b606082016000820151612cde6000850182612d0a565b506020820151612cf16020850182612d0a565b506040820151612d046040850182612898565b50505050565b612d13816133b7565b82525050565b612d22816133b7565b82525050565b6000612d348285612995565b9150612d408284612995565b91508190509392505050565b6000602082019050612d6160008301846128a7565b92915050565b6000606082019050612d7c6000830186612889565b612d8960208301856128a7565b612d966040830184612d19565b949350505050565b6000608082019050612db360008301876128a7565b612dc060208301866128a7565b612dcd6040830185612d19565b8181036060830152612ddf8184612923565b905095945050505050565b6000604082019050612dff60008301856128a7565b612e0c6020830184612d19565b9392505050565b60006020820190508181036000830152612e2d81846128b6565b905092915050565b6000602082019050612e4a6000830184612914565b92915050565b60006020820190508181036000830152612e6a818461295c565b905092915050565b60006020820190508181036000830152612e8b816129c6565b9050919050565b60006020820190508181036000830152612eab816129e9565b9050919050565b60006020820190508181036000830152612ecb81612a0c565b9050919050565b60006020820190508181036000830152612eeb81612a2f565b9050919050565b60006020820190508181036000830152612f0b81612a52565b9050919050565b60006020820190508181036000830152612f2b81612a75565b9050919050565b60006020820190508181036000830152612f4b81612a98565b9050919050565b60006020820190508181036000830152612f6b81612abb565b9050919050565b60006020820190508181036000830152612f8b81612ade565b9050919050565b60006020820190508181036000830152612fab81612b01565b9050919050565b60006020820190508181036000830152612fcb81612b24565b9050919050565b60006020820190508181036000830152612feb81612b47565b9050919050565b6000602082019050818103600083015261300b81612b6a565b9050919050565b6000602082019050818103600083015261302b81612b8d565b9050919050565b6000602082019050818103600083015261304b81612bb0565b9050919050565b6000602082019050818103600083015261306b81612bd3565b9050919050565b6000602082019050818103600083015261308b81612bf6565b9050919050565b600060208201905081810360008301526130ab81612c19565b9050919050565b600060208201905081810360008301526130cb81612c3c565b9050919050565b600060208201905081810360008301526130eb81612c5f565b9050919050565b6000602082019050818103600083015261310b81612c82565b9050919050565b6000602082019050818103600083015261312b81612ca5565b9050919050565b60006020820190506131476000830184612d19565b92915050565b60006040820190506131626000830185612d19565b8181036020830152613174818461295c565b90509392505050565b6000613187613198565b9050613193828261346b565b919050565b6000604051905090565b600067ffffffffffffffff8211156131bd576131bc6135a3565b5b6131c6826135d2565b9050602081019050919050565b600067ffffffffffffffff8211156131ee576131ed6135a3565b5b6131f7826135d2565b9050602081019050919050565b6000819050602082019050919050565b600081519050919050565b600081519050919050565b600081519050919050565b6000602082019050919050565b600082825260208201905092915050565b600082825260208201905092915050565b600082825260208201905092915050565b600081905092915050565b600061328b826133b7565b9150613296836133b7565b9250827fffffffffffffffffffffffffffffffffffffffffffffffffffffffffffffffff038211156132cb576132ca613516565b5b828201905092915050565b60006132e1826133b7565b91506132ec836133b7565b9250826132fc576132fb613545565b5b828204905092915050565b6000613312826133b7565b915061331d836133b7565b9250828210156133305761332f613516565b5b828203905092915050565b600061334682613397565b9050919050565b600061335882613397565b9050919050565b60008115159050919050565b60007fffffffff0000000000000000000000000000000000000000000000000000000082169050919050565b600073ffffffffffffffffffffffffffffffffffffffff82169050919050565b6000819050919050565b60006133cc826133d3565b9050919050565b60006133de826133e5565b9050919050565b60006133f082613397565b9050919050565b82818337600083830152505050565b60005b83811015613424578082015181840152602081019050613409565b83811115613433576000848401525b50505050565b6000600282049050600182168061345157607f821691505b6020821081141561346557613464613574565b5b50919050565b613474826135d2565b810181811067ffffffffffffffff82111715613493576134926135a3565b5b80604052505050565b60006134a7826133b7565b91507fffffffffffffffffffffffffffffffffffffffffffffffffffffffffffffffff8214156134da576134d9613516565b5b600182019050919050565b60006134f0826133b7565b91506134fb836133b7565b92508261350b5761350a613545565b5b828206905092915050565b7f4e487b7100000000000000000000000000000000000000000000000000000000600052601160045260246000fd5b7f4e487b7100000000000000000000000000000000000000000000000000000000600052601260045260246000fd5b7f4e487b7100000000000000000000000000000000000000000000000000000000600052602260045260246000fd5b7f4e487b7100000000000000000000000000000000000000000000000000000000600052604160045260246000fd5b6000601f19601f8301169050919050565b7f4552433732313a207472616e7366657220746f206e6f6e20455243373231526560008201527f63656976657220696d706c656d656e7465720000000000000000000000000000602082015250565b7f4f776e61626c653a206e6577206f776e657220697320746865207a65726f206160008201527f6464726573730000000000000000000000000000000000000000000000000000602082015250565b7f4e6f7420656e6f75676820666f72207072696365000000000000000000000000600082015250565b7f4552433732313a20746f6b656e20616c7265616479206d696e74656400000000600082015250565b7f4552433732313a207472616e7366657220746f20746865207a65726f2061646460008201527f7265737300000000000000000000000000000000000000000000000000000000602082015250565b7f4552433732313a20617070726f766520746f2063616c6c657200000000000000600082015250565b7f546f6b656e206e6f7420666f756e640000000000000000000000000000000000600082015250565b7f4552433732313a206f70657261746f7220717565727920666f72206e6f6e657860008201527f697374656e7420746f6b656e0000000000000000000000000000000000000000602082015250565b7f4552433732313a20617070726f76652063616c6c6572206973206e6f74206f7760008201527f6e6572206e6f7220617070726f76656420666f7220616c6c0000000000000000602082015250565b7f4552433732313a2062616c616e636520717565727920666f7220746865207a6560008201527f726f206164647265737300000000000000000000000000000000000000000000602082015250565b7f4552433732313a206f776e657220717565727920666f72206e6f6e657869737460008201527f656e7420746f6b656e0000000000000000000000000000000000000000000000602082015250565b7f45524337323155524953746f726167653a2055524920736574206f66206e6f6e60008201527f6578697374656e7420746f6b656e000000000000000000000000000000000000602082015250565b7f4552433732313a206d696e7420746f20746865207a65726f2061646472657373600082015250565b7f45524337323155524953746f726167653a2055524920717565727920666f722060008201527f6e6f6e6578697374656e7420746f6b656e000000000000000000000000000000602082015250565b7f4552433732313a20617070726f76656420717565727920666f72206e6f6e657860008201527f697374656e7420746f6b656e0000000000000000000000000000000000000000602082015250565b7f4f776e61626c653a2063616c6c6572206973206e6f7420746865206f776e6572600082015250565b7f4552433732313a207472616e73666572206f6620746f6b656e2074686174206960008201527f73206e6f74206f776e0000000000000000000000000000000000000000000000602082015250565b7f4552433732314d657461646174613a2055524920717565727920666f72206e6f60008201527f6e6578697374656e7420746f6b656e0000000000000000000000000000000000602082015250565b7f4552433732313a20617070726f76616c20746f2063757272656e74206f776e6560008201527f7200000000000000000000000000000000000000000000000000000000000000602082015250565b7f4f6e6c79206f776e65722063616e207365742074686520707269636500000000600082015250565b7f4552433732313a207472616e736665722063616c6c6572206973206e6f74206f60008201527f776e6572206e6f7220617070726f766564000000000000000000000000000000602082015250565b7f4661696c656420746f2073656e64000000000000000000000000000000000000600082015250565b613b868161333b565b8114613b9157600080fd5b50565b613b9d8161335f565b8114613ba857600080fd5b50565b613bb48161336b565b8114613bbf57600080fd5b50565b613bcb816133b7565b8114613bd657600080fd5b5056fea2646970667358221220c60fe9900a025b54e07a4a050f6641af7ba9889afbeebd3c962afb6f67b0321364736f6c63430008040033",
  "immutableReferences": {},
  "source": "// SPDX-License-Identifier: MIT\npragma solidity 0.8.4;\n\nimport \"@openzeppelin/contracts/token/ERC721/ERC721.sol\";\nimport \"@openzeppelin/contracts/token/ERC721/extensions/ERC721URIStorage.sol\";\nimport \"@openzeppelin/contracts/utils/Counters.sol\";\nimport \"@openzeppelin/contracts/access/Ownable.sol\";\n\n/**\n  Nft Trading platform contract inherited from ERC721 token\n  It allows token creation, reset token price and buy token from others.\n*/\ncontract NftTradingPlatform is ERC721URIStorage, Ownable {\n    event TokenCreated(uint256 tokenId, string uri);\n    event NftBought(address _seller, address _buyer, uint256 _price);\n    event Received(address, uint);\n\n    struct Item {\n        uint id;\n        uint price;\n        address payable owner;\n    }\n\n    Item[] items;\n    mapping (uint => Item) internal itemMap;\n    uint256 defaultTokenPrice = 5;\n\n    using Counters for Counters.Counter;\n    Counters.Counter private _tokenIds;\n\n    modifier tokenExists(uint256 tokenId) {\n        require(itemMap[tokenId].id > 0, 'Token not found');\n        _;\n    }\n\n    constructor() ERC721(\"NFT Trading Platform\", \"NFTTP\") {\n    }\n\n    ///create nft token from opensea url\n    function createToken(string memory tokenURI) public {\n        _tokenIds.increment();\n        uint256 newItemId = _tokenIds.current() + 10000;\n\n        _mint(msg.sender, newItemId);\n        _setTokenURI(newItemId, tokenURI);\n\n        Item memory newItem = Item({\n            id: newItemId,\n            price: defaultTokenPrice,\n            owner: payable(msg.sender)\n        });\n        items.push(newItem);\n        itemMap[newItemId] = newItem;\n\n        emit TokenCreated(newItemId, tokenURI);\n    }\n\n    ///reset token price\n    function setTokenPrice(uint256 tokenId, uint256 price) public tokenExists(tokenId) {\n        require(msg.sender == ownerOf(tokenId), 'Only owner can set the price');\n\n        //both array and map needs to be updated\n        itemMap[tokenId].price = price;\n        for (uint i=0; i<items.length; ++i) {\n            if(items[i].id == tokenId) {\n                items[i].price = price;\n            }\n        }\n    }\n\n    function getTokenPrice(uint256 tokenId) public view tokenExists(tokenId) returns(uint256) {\n        return itemMap[tokenId].price;\n    }\n\n    function getItems() public view returns (Item[] memory) {\n        return items;\n    }\n\n    ///allow buying token from other user with expected price paid\n    function buy(uint256 tokenId) external payable {\n        //use storage to indicate reference instead of copy by value\n        Item storage curItem = itemMap[tokenId];\n        uint price = curItem.price;\n        address payable curOwner = curItem.owner;\n\n        require(msg.value >= price, 'Not enough for price');\n\n        bool sent = curOwner.send(price);\n        require(sent, \"Failed to send\");\n\n        _transfer(curOwner, msg.sender, tokenId);\n        address payable newOwner = payable(msg.sender);\n        curItem.owner = newOwner;\n        for (uint i=0; i<items.length; ++i) {\n            if(items[i].id == tokenId) {\n                items[i].owner = newOwner;\n            }\n        }\n\n        emit NftBought(curOwner, msg.sender, msg.value);\n    }\n\n    ///In case contract want to store extra amount\n    receive() external payable {\n        emit Received(msg.sender, msg.value);\n    }\n}",
  "sourcePath": "/Users/hao.hao@coinbase.com/src/blockchain-developer-bootcamp-final-project/contracts/NftTradingPlatform.sol",
  "compiler": {
    "name": "solc",
    "version": "0.8.4+commit.c7e474f2.Emscripten.clang"
  },
  "schemaVersion": "3.4.0",
  "updatedAt": "2021-11-21T18:34:41.631Z",
  "networkType": "ethereum",
  "devdoc": {
    "kind": "dev",
    "methods": {
      "approve(address,uint256)": {
        "details": "See {IERC721-approve}."
      },
      "balanceOf(address)": {
        "details": "See {IERC721-balanceOf}."
      },
      "getApproved(uint256)": {
        "details": "See {IERC721-getApproved}."
      },
      "isApprovedForAll(address,address)": {
        "details": "See {IERC721-isApprovedForAll}."
      },
      "name()": {
        "details": "See {IERC721Metadata-name}."
      },
      "owner()": {
        "details": "Returns the address of the current owner."
      },
      "ownerOf(uint256)": {
        "details": "See {IERC721-ownerOf}."
      },
      "renounceOwnership()": {
        "details": "Leaves the contract without owner. It will not be possible to call `onlyOwner` functions anymore. Can only be called by the current owner. NOTE: Renouncing ownership will leave the contract without an owner, thereby removing any functionality that is only available to the owner."
      },
      "safeTransferFrom(address,address,uint256)": {
        "details": "See {IERC721-safeTransferFrom}."
      },
      "safeTransferFrom(address,address,uint256,bytes)": {
        "details": "See {IERC721-safeTransferFrom}."
      },
      "setApprovalForAll(address,bool)": {
        "details": "See {IERC721-setApprovalForAll}."
      },
      "supportsInterface(bytes4)": {
        "details": "See {IERC165-supportsInterface}."
      },
      "symbol()": {
        "details": "See {IERC721Metadata-symbol}."
      },
      "tokenURI(uint256)": {
        "details": "See {IERC721Metadata-tokenURI}."
      },
      "transferFrom(address,address,uint256)": {
        "details": "See {IERC721-transferFrom}."
      },
      "transferOwnership(address)": {
        "details": "Transfers ownership of the contract to a new account (`newOwner`). Can only be called by the current owner."
      }
    },
    "version": 1
  },
  "userdoc": {
    "kind": "user",
    "methods": {
      "buy(uint256)": {
        "notice": "allow buying token from other user with expected price paid"
      },
      "createToken(string)": {
        "notice": "create nft token from opensea url"
      },
      "setTokenPrice(uint256,uint256)": {
        "notice": "reset token price"
      }
    },
    "notice": "Nft Trading platform contract inherited from ERC721 token It allows token creation, reset token price and buy token from others.",
    "version": 1
  }
}