{
  "contractName": "SimpleCollectible",
  "abi": [
    {
      "inputs": [],
      "stateMutability": "nonpayable",
      "type": "constructor"
    },
    {
      "anonymous": false,
      "inputs": [
        {
          "indexed": true,
          "internalType": "address",
          "name": "owner",
          "type": "address"
        },
        {
          "indexed": true,
          "internalType": "address",
          "name": "approved",
          "type": "address"
        },
        {
          "indexed": true,
          "internalType": "uint256",
          "name": "tokenId",
          "type": "uint256"
        }
      ],
      "name": "Approval",
      "type": "event"
    },
    {
      "anonymous": false,
      "inputs": [
        {
          "indexed": true,
          "internalType": "address",
          "name": "owner",
          "type": "address"
        },
        {
          "indexed": true,
          "internalType": "address",
          "name": "operator",
          "type": "address"
        },
        {
          "indexed": false,
          "internalType": "bool",
          "name": "approved",
          "type": "bool"
        }
      ],
      "name": "ApprovalForAll",
      "type": "event"
    },
    {
      "anonymous": false,
      "inputs": [
        {
          "indexed": false,
          "internalType": "address",
          "name": "_seller",
          "type": "address"
        },
        {
          "indexed": false,
          "internalType": "address",
          "name": "_buyer",
          "type": "address"
        },
        {
          "indexed": false,
          "internalType": "uint256",
          "name": "_price",
          "type": "uint256"
        }
      ],
      "name": "NftBought",
      "type": "event"
    },
    {
      "anonymous": false,
      "inputs": [
        {
          "indexed": true,
          "internalType": "address",
          "name": "previousOwner",
          "type": "address"
        },
        {
          "indexed": true,
          "internalType": "address",
          "name": "newOwner",
          "type": "address"
        }
      ],
      "name": "OwnershipTransferred",
      "type": "event"
    },
    {
      "anonymous": false,
      "inputs": [
        {
          "indexed": false,
          "internalType": "address",
          "name": "",
          "type": "address"
        },
        {
          "indexed": false,
          "internalType": "uint256",
          "name": "",
          "type": "uint256"
        }
      ],
      "name": "Received",
      "type": "event"
    },
    {
      "anonymous": false,
      "inputs": [
        {
          "indexed": false,
          "internalType": "uint256",
          "name": "tokenId",
          "type": "uint256"
        },
        {
          "indexed": false,
          "internalType": "string",
          "name": "uri",
          "type": "string"
        }
      ],
      "name": "TokenCreated",
      "type": "event"
    },
    {
      "anonymous": false,
      "inputs": [
        {
          "indexed": true,
          "internalType": "address",
          "name": "from",
          "type": "address"
        },
        {
          "indexed": true,
          "internalType": "address",
          "name": "to",
          "type": "address"
        },
        {
          "indexed": true,
          "internalType": "uint256",
          "name": "tokenId",
          "type": "uint256"
        }
      ],
      "name": "Transfer",
      "type": "event"
    },
    {
      "inputs": [
        {
          "internalType": "address",
          "name": "to",
          "type": "address"
        },
        {
          "internalType": "uint256",
          "name": "tokenId",
          "type": "uint256"
        }
      ],
      "name": "approve",
      "outputs": [],
      "stateMutability": "nonpayable",
      "type": "function"
    },
    {
      "inputs": [
        {
          "internalType": "address",
          "name": "owner",
          "type": "address"
        }
      ],
      "name": "balanceOf",
      "outputs": [
        {
          "internalType": "uint256",
          "name": "",
          "type": "uint256"
        }
      ],
      "stateMutability": "view",
      "type": "function"
    },
    {
      "inputs": [
        {
          "internalType": "uint256",
          "name": "tokenId",
          "type": "uint256"
        }
      ],
      "name": "getApproved",
      "outputs": [
        {
          "internalType": "address",
          "name": "",
          "type": "address"
        }
      ],
      "stateMutability": "view",
      "type": "function"
    },
    {
      "inputs": [
        {
          "internalType": "address",
          "name": "owner",
          "type": "address"
        },
        {
          "internalType": "address",
          "name": "operator",
          "type": "address"
        }
      ],
      "name": "isApprovedForAll",
      "outputs": [
        {
          "internalType": "bool",
          "name": "",
          "type": "bool"
        }
      ],
      "stateMutability": "view",
      "type": "function"
    },
    {
      "inputs": [],
      "name": "name",
      "outputs": [
        {
          "internalType": "string",
          "name": "",
          "type": "string"
        }
      ],
      "stateMutability": "view",
      "type": "function"
    },
    {
      "inputs": [],
      "name": "owner",
      "outputs": [
        {
          "internalType": "address",
          "name": "",
          "type": "address"
        }
      ],
      "stateMutability": "view",
      "type": "function"
    },
    {
      "inputs": [
        {
          "internalType": "uint256",
          "name": "tokenId",
          "type": "uint256"
        }
      ],
      "name": "ownerOf",
      "outputs": [
        {
          "internalType": "address",
          "name": "",
          "type": "address"
        }
      ],
      "stateMutability": "view",
      "type": "function"
    },
    {
      "inputs": [],
      "name": "renounceOwnership",
      "outputs": [],
      "stateMutability": "nonpayable",
      "type": "function"
    },
    {
      "inputs": [
        {
          "internalType": "address",
          "name": "from",
          "type": "address"
        },
        {
          "internalType": "address",
          "name": "to",
          "type": "address"
        },
        {
          "internalType": "uint256",
          "name": "tokenId",
          "type": "uint256"
        }
      ],
      "name": "safeTransferFrom",
      "outputs": [],
      "stateMutability": "nonpayable",
      "type": "function"
    },
    {
      "inputs": [
        {
          "internalType": "address",
          "name": "from",
          "type": "address"
        },
        {
          "internalType": "address",
          "name": "to",
          "type": "address"
        },
        {
          "internalType": "uint256",
          "name": "tokenId",
          "type": "uint256"
        },
        {
          "internalType": "bytes",
          "name": "_data",
          "type": "bytes"
        }
      ],
      "name": "safeTransferFrom",
      "outputs": [],
      "stateMutability": "nonpayable",
      "type": "function"
    },
    {
      "inputs": [
        {
          "internalType": "address",
          "name": "operator",
          "type": "address"
        },
        {
          "internalType": "bool",
          "name": "approved",
          "type": "bool"
        }
      ],
      "name": "setApprovalForAll",
      "outputs": [],
      "stateMutability": "nonpayable",
      "type": "function"
    },
    {
      "inputs": [
        {
          "internalType": "bytes4",
          "name": "interfaceId",
          "type": "bytes4"
        }
      ],
      "name": "supportsInterface",
      "outputs": [
        {
          "internalType": "bool",
          "name": "",
          "type": "bool"
        }
      ],
      "stateMutability": "view",
      "type": "function"
    },
    {
      "inputs": [],
      "name": "symbol",
      "outputs": [
        {
          "internalType": "string",
          "name": "",
          "type": "string"
        }
      ],
      "stateMutability": "view",
      "type": "function"
    },
    {
      "inputs": [
        {
          "internalType": "uint256",
          "name": "tokenId",
          "type": "uint256"
        }
      ],
      "name": "tokenURI",
      "outputs": [
        {
          "internalType": "string",
          "name": "",
          "type": "string"
        }
      ],
      "stateMutability": "view",
      "type": "function"
    },
    {
      "inputs": [
        {
          "internalType": "address",
          "name": "from",
          "type": "address"
        },
        {
          "internalType": "address",
          "name": "to",
          "type": "address"
        },
        {
          "internalType": "uint256",
          "name": "tokenId",
          "type": "uint256"
        }
      ],
      "name": "transferFrom",
      "outputs": [],
      "stateMutability": "nonpayable",
      "type": "function"
    },
    {
      "inputs": [
        {
          "internalType": "address",
          "name": "newOwner",
          "type": "address"
        }
      ],
      "name": "transferOwnership",
      "outputs": [],
      "stateMutability": "nonpayable",
      "type": "function"
    },
    {
      "stateMutability": "payable",
      "type": "receive"
    },
    {
      "inputs": [
        {
          "internalType": "string",
          "name": "tokenURI",
          "type": "string"
        }
      ],
      "name": "createToken",
      "outputs": [],
      "stateMutability": "nonpayable",
      "type": "function"
    },
    {
      "inputs": [
        {
          "internalType": "uint256",
          "name": "tokenId",
          "type": "uint256"
        },
        {
          "internalType": "uint256",
          "name": "price",
          "type": "uint256"
        }
      ],
      "name": "setTokenPrice",
      "outputs": [],
      "stateMutability": "nonpayable",
      "type": "function"
    },
    {
      "inputs": [
        {
          "internalType": "uint256",
          "name": "tokenId",
          "type": "uint256"
        }
      ],
      "name": "getTokenPrice",
      "outputs": [
        {
          "internalType": "uint256",
          "name": "",
          "type": "uint256"
        }
      ],
      "stateMutability": "view",
      "type": "function"
    },
    {
      "inputs": [],
      "name": "getItems",
      "outputs": [
        {
          "components": [
            {
              "internalType": "uint256",
              "name": "id",
              "type": "uint256"
            },
            {
              "internalType": "uint256",
              "name": "price",
              "type": "uint256"
            },
            {
              "internalType": "address payable",
              "name": "owner",
              "type": "address"
            }
          ],
          "internalType": "struct SimpleCollectible.Item[]",
          "name": "",
          "type": "tuple[]"
        }
      ],
      "stateMutability": "view",
      "type": "function"
    },
    {
      "inputs": [
        {
          "internalType": "uint256",
          "name": "tokenId",
          "type": "uint256"
        }
      ],
      "name": "buy",
      "outputs": [],
      "stateMutability": "payable",
      "type": "function"
    }
  ],
  "bytecode": "0x60806040526005600a553480156200001657600080fd5b506040518060400160405280600b81526020017f466163746f7279204e46540000000000000000000000000000000000000000008152506040518060400160405280600381526020017f46544e000000000000000000000000000000000000000000000000000000000081525081600090805190602001906200009b929190620001ab565b508060019080519060200190620000b4929190620001ab565b505050620000d7620000cb620000dd60201b60201c565b620000e560201b60201c565b620002c0565b600033905090565b6000600760009054906101000a900473ffffffffffffffffffffffffffffffffffffffff16905081600760006101000a81548173ffffffffffffffffffffffffffffffffffffffff021916908373ffffffffffffffffffffffffffffffffffffffff1602179055508173ffffffffffffffffffffffffffffffffffffffff168173ffffffffffffffffffffffffffffffffffffffff167f8be0079c531659141344cd1fd0a4f28419497f9722a3daafe3b4186f6b6457e060405160405180910390a35050565b828054620001b9906200028a565b90600052602060002090601f016020900481019282620001dd576000855562000229565b82601f10620001f857805160ff191683800117855562000229565b8280016001018555821562000229579182015b82811115620002285782518255916020019190600101906200020b565b5b5090506200023891906200023c565b5090565b5b80821115620002575760008160009055506001016200023d565b5090565b7f4e487b7100000000000000000000000000000000000000000000000000000000600052602260045260246000fd5b60006002820490506001821680620002a357607f821691505b60208210811415620002ba57620002b96200025b565b5b50919050565b613bcc80620002d06000396000f3fe60806040526004361061012e5760003560e01c8063715018a6116100ab578063c457fb371161006f578063c457fb3714610420578063c87b56dd1461045d578063d96a094a1461049a578063e985e9c5146104b6578063eb685c47146104f3578063f2fde38b1461051c5761016e565b8063715018a6146103615780638da5cb5b1461037857806395d89b41146103a3578063a22cb465146103ce578063b88d4fde146103f75761016e565b8063410d59cc116100f2578063410d59cc1461026a57806342842e0e1461029557806345576f94146102be5780636352211e146102e757806370a08231146103245761016e565b806301ffc9a71461017357806306fdde03146101b0578063081812fc146101db578063095ea7b31461021857806323b872dd146102415761016e565b3661016e577f88a5966d370b9919b20f3e2c13ff65706f196a4e32cc2c12bf57088f88525874333460405161016492919061240f565b60405180910390a1005b600080fd5b34801561017f57600080fd5b5061019a600480360381019061019591906124a4565b610545565b6040516101a791906124ec565b60405180910390f35b3480156101bc57600080fd5b506101c5610627565b6040516101d291906125a0565b60405180910390f35b3480156101e757600080fd5b5061020260048036038101906101fd91906125ee565b6106b9565b60405161020f919061261b565b60405180910390f35b34801561022457600080fd5b5061023f600480360381019061023a9190612662565b61073e565b005b34801561024d57600080fd5b50610268600480360381019061026391906126a2565b610856565b005b34801561027657600080fd5b5061027f6108b6565b60405161028c9190612816565b60405180910390f35b3480156102a157600080fd5b506102bc60048036038101906102b791906126a2565b61097f565b005b3480156102ca57600080fd5b506102e560048036038101906102e0919061296d565b61099f565b005b3480156102f357600080fd5b5061030e600480360381019061030991906125ee565b610b48565b60405161031b919061261b565b60405180910390f35b34801561033057600080fd5b5061034b600480360381019061034691906129b6565b610bfa565b60405161035891906129e3565b60405180910390f35b34801561036d57600080fd5b50610376610cb2565b005b34801561038457600080fd5b5061038d610d3a565b60405161039a919061261b565b60405180910390f35b3480156103af57600080fd5b506103b8610d64565b6040516103c591906125a0565b60405180910390f35b3480156103da57600080fd5b506103f560048036038101906103f09190612a2a565b610df6565b005b34801561040357600080fd5b5061041e60048036038101906104199190612b0b565b610f77565b005b34801561042c57600080fd5b50610447600480360381019061044291906125ee565b610fd9565b60405161045491906129e3565b60405180910390f35b34801561046957600080fd5b50610484600480360381019061047f91906125ee565b611054565b60405161049191906125a0565b60405180910390f35b6104b460048036038101906104af91906125ee565b6111a6565b005b3480156104c257600080fd5b506104dd60048036038101906104d89190612b8e565b6113f5565b6040516104ea91906124ec565b60405180910390f35b3480156104ff57600080fd5b5061051a60048036038101906105159190612bce565b611489565b005b34801561052857600080fd5b50610543600480360381019061053e91906129b6565b6115f3565b005b60007f80ac58cd000000000000000000000000000000000000000000000000000000007bffffffffffffffffffffffffffffffffffffffffffffffffffffffff1916827bffffffffffffffffffffffffffffffffffffffffffffffffffffffff1916148061061057507f5b5e139f000000000000000000000000000000000000000000000000000000007bffffffffffffffffffffffffffffffffffffffffffffffffffffffff1916827bffffffffffffffffffffffffffffffffffffffffffffffffffffffff1916145b80610620575061061f826116eb565b5b9050919050565b60606000805461063690612c3d565b80601f016020809104026020016040519081016040528092919081815260200182805461066290612c3d565b80156106af5780601f10610684576101008083540402835291602001916106af565b820191906000526020600020905b81548152906001019060200180831161069257829003601f168201915b5050505050905090565b60006106c482611755565b610703576040517f08c379a00000000000000000000000000000000000000000000000000000000081526004016106fa90612ce1565b60405180910390fd5b6004600083815260200190815260200160002060009054906101000a900473ffffffffffffffffffffffffffffffffffffffff169050919050565b600061074982610b48565b90508073ffffffffffffffffffffffffffffffffffffffff168373ffffffffffffffffffffffffffffffffffffffff1614156107ba576040517f08c379a00000000000000000000000000000000000000000000000000000000081526004016107b190612d73565b60405180910390fd5b8073ffffffffffffffffffffffffffffffffffffffff166107d96117c1565b73ffffffffffffffffffffffffffffffffffffffff1614806108085750610807816108026117c1565b6113f5565b5b610847576040517f08c379a000000000000000000000000000000000000000000000000000000000815260040161083e90612e05565b60405180910390fd5b61085183836117c9565b505050565b6108676108616117c1565b82611882565b6108a6576040517f08c379a000000000000000000000000000000000000000000000000000000000815260040161089d90612e97565b60405180910390fd5b6108b1838383611960565b505050565b60606008805480602002602001604051908101604052809291908181526020016000905b82821015610976578382906000526020600020906003020160405180606001604052908160008201548152602001600182015481526020016002820160009054906101000a900473ffffffffffffffffffffffffffffffffffffffff1673ffffffffffffffffffffffffffffffffffffffff1673ffffffffffffffffffffffffffffffffffffffff1681525050815260200190600101906108da565b50505050905090565b61099a83838360405180602001604052806000815250610f77565b505050565b6109a9600b611bbc565b60006127106109b8600b611bd2565b6109c29190612ee6565b90506109ce3382611be0565b6109d88183611dae565b60006040518060600160405280838152602001600a5481526020013373ffffffffffffffffffffffffffffffffffffffff1681525090506008819080600181540180825580915050600190039060005260206000209060030201600090919091909150600082015181600001556020820151816001015560408201518160020160006101000a81548173ffffffffffffffffffffffffffffffffffffffff021916908373ffffffffffffffffffffffffffffffffffffffff16021790555050508060096000848152602001908152602001600020600082015181600001556020820151816001015560408201518160020160006101000a81548173ffffffffffffffffffffffffffffffffffffffff021916908373ffffffffffffffffffffffffffffffffffffffff1602179055509050507f5d3ac5872118b949a1f8db596134a0e1587ecf18f2203bb1e3ea420c3c3f8fa98284604051610b3b929190612f3c565b60405180910390a1505050565b6000806002600084815260200190815260200160002060009054906101000a900473ffffffffffffffffffffffffffffffffffffffff169050600073ffffffffffffffffffffffffffffffffffffffff168173ffffffffffffffffffffffffffffffffffffffff161415610bf1576040517f08c379a0000000000000000000000000000000000000000000000000000000008152600401610be890612fde565b60405180910390fd5b80915050919050565b60008073ffffffffffffffffffffffffffffffffffffffff168273ffffffffffffffffffffffffffffffffffffffff161415610c6b576040517f08c379a0000000000000000000000000000000000000000000000000000000008152600401610c6290613070565b60405180910390fd5b600360008373ffffffffffffffffffffffffffffffffffffffff1673ffffffffffffffffffffffffffffffffffffffff168152602001908152602001600020549050919050565b610cba6117c1565b73ffffffffffffffffffffffffffffffffffffffff16610cd8610d3a565b73ffffffffffffffffffffffffffffffffffffffff1614610d2e576040517f08c379a0000000000000000000000000000000000000000000000000000000008152600401610d25906130dc565b60405180910390fd5b610d386000611e22565b565b6000600760009054906101000a900473ffffffffffffffffffffffffffffffffffffffff16905090565b606060018054610d7390612c3d565b80601f0160208091040260200160405190810160405280929190818152602001828054610d9f90612c3d565b8015610dec5780601f10610dc157610100808354040283529160200191610dec565b820191906000526020600020905b815481529060010190602001808311610dcf57829003601f168201915b5050505050905090565b610dfe6117c1565b73ffffffffffffffffffffffffffffffffffffffff168273ffffffffffffffffffffffffffffffffffffffff161415610e6c576040517f08c379a0000000000000000000000000000000000000000000000000000000008152600401610e6390613148565b60405180910390fd5b8060056000610e796117c1565b73ffffffffffffffffffffffffffffffffffffffff1673ffffffffffffffffffffffffffffffffffffffff16815260200190815260200160002060008473ffffffffffffffffffffffffffffffffffffffff1673ffffffffffffffffffffffffffffffffffffffff16815260200190815260200160002060006101000a81548160ff0219169083151502179055508173ffffffffffffffffffffffffffffffffffffffff16610f266117c1565b73ffffffffffffffffffffffffffffffffffffffff167f17307eab39ab6107e8899845ad3d59bd9653f200f220920489ca2b5937696c3183604051610f6b91906124ec565b60405180910390a35050565b610f88610f826117c1565b83611882565b610fc7576040517f08c379a0000000000000000000000000000000000000000000000000000000008152600401610fbe90612e97565b60405180910390fd5b610fd384848484611ee8565b50505050565b6000816000600960008381526020019081526020016000206000015411611035576040517f08c379a000000000000000000000000000000000000000000000000000000000815260040161102c906131b4565b60405180910390fd5b6009600084815260200190815260200160002060010154915050919050565b606061105f82611755565b61109e576040517f08c379a000000000000000000000000000000000000000000000000000000000815260040161109590613246565b60405180910390fd5b60006006600084815260200190815260200160002080546110be90612c3d565b80601f01602080910402602001604051908101604052809291908181526020018280546110ea90612c3d565b80156111375780601f1061110c57610100808354040283529160200191611137565b820191906000526020600020905b81548152906001019060200180831161111a57829003601f168201915b505050505090506000611148611f44565b905060008151141561115e5781925050506111a1565b60008251111561119357808260405160200161117b9291906132a2565b604051602081830303815290604052925050506111a1565b61119c84611f5b565b925050505b919050565b600060096000838152602001908152602001600020905060008160010154905060008260020160009054906101000a900473ffffffffffffffffffffffffffffffffffffffff16905081341015611232576040517f08c379a000000000000000000000000000000000000000000000000000000000815260040161122990613312565b60405180910390fd5b60008173ffffffffffffffffffffffffffffffffffffffff166108fc849081150290604051600060405180830381858888f193505050509050806112ab576040517f08c379a00000000000000000000000000000000000000000000000000000000081526004016112a29061337e565b60405180910390fd5b6112b6823387611960565b6000339050808560020160006101000a81548173ffffffffffffffffffffffffffffffffffffffff021916908373ffffffffffffffffffffffffffffffffffffffff16021790555060005b6008805490508110156113b15786600882815481106113235761132261339e565b5b90600052602060002090600302016000015414156113a05781600882815481106113505761134f61339e565b5b906000526020600020906003020160020160006101000a81548173ffffffffffffffffffffffffffffffffffffffff021916908373ffffffffffffffffffffffffffffffffffffffff1602179055505b806113aa906133cd565b9050611301565b507f608f6ac9327c2bf4d3c77adf447d2c448ba7b0971e0aaa9aa03f7ac29d874a448333346040516113e593929190613475565b60405180910390a1505050505050565b6000600560008473ffffffffffffffffffffffffffffffffffffffff1673ffffffffffffffffffffffffffffffffffffffff16815260200190815260200160002060008373ffffffffffffffffffffffffffffffffffffffff1673ffffffffffffffffffffffffffffffffffffffff16815260200190815260200160002060009054906101000a900460ff16905092915050565b8160006009600083815260200190815260200160002060000154116114e3576040517f08c379a00000000000000000000000000000000000000000000000000000000081526004016114da906131b4565b60405180910390fd5b6114ec83610b48565b73ffffffffffffffffffffffffffffffffffffffff163373ffffffffffffffffffffffffffffffffffffffff1614611559576040517f08c379a0000000000000000000000000000000000000000000000000000000008152600401611550906134f8565b60405180910390fd5b81600960008581526020019081526020016000206001018190555060005b6008805490508110156115ed5783600882815481106115995761159861339e565b5b90600052602060002090600302016000015414156115dc5782600882815481106115c6576115c561339e565b5b9060005260206000209060030201600101819055505b806115e6906133cd565b9050611577565b50505050565b6115fb6117c1565b73ffffffffffffffffffffffffffffffffffffffff16611619610d3a565b73ffffffffffffffffffffffffffffffffffffffff161461166f576040517f08c379a0000000000000000000000000000000000000000000000000000000008152600401611666906130dc565b60405180910390fd5b600073ffffffffffffffffffffffffffffffffffffffff168173ffffffffffffffffffffffffffffffffffffffff1614156116df576040517f08c379a00000000000000000000000000000000000000000000000000000000081526004016116d69061358a565b60405180910390fd5b6116e881611e22565b50565b60007f01ffc9a7000000000000000000000000000000000000000000000000000000007bffffffffffffffffffffffffffffffffffffffffffffffffffffffff1916827bffffffffffffffffffffffffffffffffffffffffffffffffffffffff1916149050919050565b60008073ffffffffffffffffffffffffffffffffffffffff166002600084815260200190815260200160002060009054906101000a900473ffffffffffffffffffffffffffffffffffffffff1673ffffffffffffffffffffffffffffffffffffffff1614159050919050565b600033905090565b816004600083815260200190815260200160002060006101000a81548173ffffffffffffffffffffffffffffffffffffffff021916908373ffffffffffffffffffffffffffffffffffffffff160217905550808273ffffffffffffffffffffffffffffffffffffffff1661183c83610b48565b73ffffffffffffffffffffffffffffffffffffffff167f8c5be1e5ebec7d5bd14f71427d1e84f3dd0314c0f7b2291e5b200ac8c7c3b92560405160405180910390a45050565b600061188d82611755565b6118cc576040517f08c379a00000000000000000000000000000000000000000000000000000000081526004016118c39061361c565b60405180910390fd5b60006118d783610b48565b90508073ffffffffffffffffffffffffffffffffffffffff168473ffffffffffffffffffffffffffffffffffffffff16148061194657508373ffffffffffffffffffffffffffffffffffffffff1661192e846106b9565b73ffffffffffffffffffffffffffffffffffffffff16145b80611957575061195681856113f5565b5b91505092915050565b8273ffffffffffffffffffffffffffffffffffffffff1661198082610b48565b73ffffffffffffffffffffffffffffffffffffffff16146119d6576040517f08c379a00000000000000000000000000000000000000000000000000000000081526004016119cd906136ae565b60405180910390fd5b600073ffffffffffffffffffffffffffffffffffffffff168273ffffffffffffffffffffffffffffffffffffffff161415611a46576040517f08c379a0000000000000000000000000000000000000000000000000000000008152600401611a3d90613740565b60405180910390fd5b611a51838383612002565b611a5c6000826117c9565b6001600360008573ffffffffffffffffffffffffffffffffffffffff1673ffffffffffffffffffffffffffffffffffffffff1681526020019081526020016000206000828254611aac9190613760565b925050819055506001600360008473ffffffffffffffffffffffffffffffffffffffff1673ffffffffffffffffffffffffffffffffffffffff1681526020019081526020016000206000828254611b039190612ee6565b92505081905550816002600083815260200190815260200160002060006101000a81548173ffffffffffffffffffffffffffffffffffffffff021916908373ffffffffffffffffffffffffffffffffffffffff160217905550808273ffffffffffffffffffffffffffffffffffffffff168473ffffffffffffffffffffffffffffffffffffffff167fddf252ad1be2c89b69c2b068fc378daa952ba7f163c4a11628f55a4df523b3ef60405160405180910390a4505050565b6001816000016000828254019250508190555050565b600081600001549050919050565b600073ffffffffffffffffffffffffffffffffffffffff168273ffffffffffffffffffffffffffffffffffffffff161415611c50576040517f08c379a0000000000000000000000000000000000000000000000000000000008152600401611c47906137e0565b60405180910390fd5b611c5981611755565b15611c99576040517f08c379a0000000000000000000000000000000000000000000000000000000008152600401611c909061384c565b60405180910390fd5b611ca560008383612002565b6001600360008473ffffffffffffffffffffffffffffffffffffffff1673ffffffffffffffffffffffffffffffffffffffff1681526020019081526020016000206000828254611cf59190612ee6565b92505081905550816002600083815260200190815260200160002060006101000a81548173ffffffffffffffffffffffffffffffffffffffff021916908373ffffffffffffffffffffffffffffffffffffffff160217905550808273ffffffffffffffffffffffffffffffffffffffff16600073ffffffffffffffffffffffffffffffffffffffff167fddf252ad1be2c89b69c2b068fc378daa952ba7f163c4a11628f55a4df523b3ef60405160405180910390a45050565b611db782611755565b611df6576040517f08c379a0000000000000000000000000000000000000000000000000000000008152600401611ded906138de565b60405180910390fd5b80600660008481526020019081526020016000209080519060200190611e1d929190612312565b505050565b6000600760009054906101000a900473ffffffffffffffffffffffffffffffffffffffff16905081600760006101000a81548173ffffffffffffffffffffffffffffffffffffffff021916908373ffffffffffffffffffffffffffffffffffffffff1602179055508173ffffffffffffffffffffffffffffffffffffffff168173ffffffffffffffffffffffffffffffffffffffff167f8be0079c531659141344cd1fd0a4f28419497f9722a3daafe3b4186f6b6457e060405160405180910390a35050565b611ef3848484611960565b611eff84848484612007565b611f3e576040517f08c379a0000000000000000000000000000000000000000000000000000000008152600401611f3590613970565b60405180910390fd5b50505050565b606060405180602001604052806000815250905090565b6060611f6682611755565b611fa5576040517f08c379a0000000000000000000000000000000000000000000000000000000008152600401611f9c90613a02565b60405180910390fd5b6000611faf611f44565b90506000815111611fcf5760405180602001604052806000815250611ffa565b80611fd98461219e565b604051602001611fea9291906132a2565b6040516020818303038152906040525b915050919050565b505050565b60006120288473ffffffffffffffffffffffffffffffffffffffff166122ff565b15612191578373ffffffffffffffffffffffffffffffffffffffff1663150b7a026120516117c1565b8786866040518563ffffffff1660e01b81526004016120739493929190613a77565b602060405180830381600087803b15801561208d57600080fd5b505af19250505080156120be57506040513d601f19601f820116820180604052508101906120bb9190613ad8565b60015b612141573d80600081146120ee576040519150601f19603f3d011682016040523d82523d6000602084013e6120f3565b606091505b50600081511415612139576040517f08c379a000000000000000000000000000000000000000000000000000000000815260040161213090613970565b60405180910390fd5b805181602001fd5b63150b7a0260e01b7bffffffffffffffffffffffffffffffffffffffffffffffffffffffff1916817bffffffffffffffffffffffffffffffffffffffffffffffffffffffff191614915050612196565b600190505b949350505050565b606060008214156121e6576040518060400160405280600181526020017f300000000000000000000000000000000000000000000000000000000000000081525090506122fa565b600082905060005b60008214612218578080612201906133cd565b915050600a826122119190613b34565b91506121ee565b60008167ffffffffffffffff81111561223457612233612842565b5b6040519080825280601f01601f1916602001820160405280156122665781602001600182028036833780820191505090505b5090505b600085146122f35760018261227f9190613760565b9150600a8561228e9190613b65565b603061229a9190612ee6565b60f81b8183815181106122b0576122af61339e565b5b60200101907effffffffffffffffffffffffffffffffffffffffffffffffffffffffffffff1916908160001a905350600a856122ec9190613b34565b945061226a565b8093505050505b919050565b600080823b905060008111915050919050565b82805461231e90612c3d565b90600052602060002090601f0160209004810192826123405760008555612387565b82601f1061235957805160ff1916838001178555612387565b82800160010185558215612387579182015b8281111561238657825182559160200191906001019061236b565b5b5090506123949190612398565b5090565b5b808211156123b1576000816000905550600101612399565b5090565b600073ffffffffffffffffffffffffffffffffffffffff82169050919050565b60006123e0826123b5565b9050919050565b6123f0816123d5565b82525050565b6000819050919050565b612409816123f6565b82525050565b600060408201905061242460008301856123e7565b6124316020830184612400565b9392505050565b6000604051905090565b600080fd5b600080fd5b60007fffffffff0000000000000000000000000000000000000000000000000000000082169050919050565b6124818161244c565b811461248c57600080fd5b50565b60008135905061249e81612478565b92915050565b6000602082840312156124ba576124b9612442565b5b60006124c88482850161248f565b91505092915050565b60008115159050919050565b6124e6816124d1565b82525050565b600060208201905061250160008301846124dd565b92915050565b600081519050919050565b600082825260208201905092915050565b60005b83811015612541578082015181840152602081019050612526565b83811115612550576000848401525b50505050565b6000601f19601f8301169050919050565b600061257282612507565b61257c8185612512565b935061258c818560208601612523565b61259581612556565b840191505092915050565b600060208201905081810360008301526125ba8184612567565b905092915050565b6125cb816123f6565b81146125d657600080fd5b50565b6000813590506125e8816125c2565b92915050565b60006020828403121561260457612603612442565b5b6000612612848285016125d9565b91505092915050565b600060208201905061263060008301846123e7565b92915050565b61263f816123d5565b811461264a57600080fd5b50565b60008135905061265c81612636565b92915050565b6000806040838503121561267957612678612442565b5b60006126878582860161264d565b9250506020612698858286016125d9565b9150509250929050565b6000806000606084860312156126bb576126ba612442565b5b60006126c98682870161264d565b93505060206126da8682870161264d565b92505060406126eb868287016125d9565b9150509250925092565b600081519050919050565b600082825260208201905092915050565b6000819050602082019050919050565b61272a816123f6565b82525050565b600061273b826123b5565b9050919050565b61274b81612730565b82525050565b6060820160008201516127676000850182612721565b50602082015161277a6020850182612721565b50604082015161278d6040850182612742565b50505050565b600061279f8383612751565b60608301905092915050565b6000602082019050919050565b60006127c3826126f5565b6127cd8185612700565b93506127d883612711565b8060005b838110156128095781516127f08882612793565b97506127fb836127ab565b9250506001810190506127dc565b5085935050505092915050565b6000602082019050818103600083015261283081846127b8565b905092915050565b600080fd5b600080fd5b7f4e487b7100000000000000000000000000000000000000000000000000000000600052604160045260246000fd5b61287a82612556565b810181811067ffffffffffffffff8211171561289957612898612842565b5b80604052505050565b60006128ac612438565b90506128b88282612871565b919050565b600067ffffffffffffffff8211156128d8576128d7612842565b5b6128e182612556565b9050602081019050919050565b82818337600083830152505050565b600061291061290b846128bd565b6128a2565b90508281526020810184848401111561292c5761292b61283d565b5b6129378482856128ee565b509392505050565b600082601f83011261295457612953612838565b5b81356129648482602086016128fd565b91505092915050565b60006020828403121561298357612982612442565b5b600082013567ffffffffffffffff8111156129a1576129a0612447565b5b6129ad8482850161293f565b91505092915050565b6000602082840312156129cc576129cb612442565b5b60006129da8482850161264d565b91505092915050565b60006020820190506129f86000830184612400565b92915050565b612a07816124d1565b8114612a1257600080fd5b50565b600081359050612a24816129fe565b92915050565b60008060408385031215612a4157612a40612442565b5b6000612a4f8582860161264d565b9250506020612a6085828601612a15565b9150509250929050565b600067ffffffffffffffff821115612a8557612a84612842565b5b612a8e82612556565b9050602081019050919050565b6000612aae612aa984612a6a565b6128a2565b905082815260208101848484011115612aca57612ac961283d565b5b612ad58482856128ee565b509392505050565b600082601f830112612af257612af1612838565b5b8135612b02848260208601612a9b565b91505092915050565b60008060008060808587031215612b2557612b24612442565b5b6000612b338782880161264d565b9450506020612b448782880161264d565b9350506040612b55878288016125d9565b925050606085013567ffffffffffffffff811115612b7657612b75612447565b5b612b8287828801612add565b91505092959194509250565b60008060408385031215612ba557612ba4612442565b5b6000612bb38582860161264d565b9250506020612bc48582860161264d565b9150509250929050565b60008060408385031215612be557612be4612442565b5b6000612bf3858286016125d9565b9250506020612c04858286016125d9565b9150509250929050565b7f4e487b7100000000000000000000000000000000000000000000000000000000600052602260045260246000fd5b60006002820490506001821680612c5557607f821691505b60208210811415612c6957612c68612c0e565b5b50919050565b7f4552433732313a20617070726f76656420717565727920666f72206e6f6e657860008201527f697374656e7420746f6b656e0000000000000000000000000000000000000000602082015250565b6000612ccb602c83612512565b9150612cd682612c6f565b604082019050919050565b60006020820190508181036000830152612cfa81612cbe565b9050919050565b7f4552433732313a20617070726f76616c20746f2063757272656e74206f776e6560008201527f7200000000000000000000000000000000000000000000000000000000000000602082015250565b6000612d5d602183612512565b9150612d6882612d01565b604082019050919050565b60006020820190508181036000830152612d8c81612d50565b9050919050565b7f4552433732313a20617070726f76652063616c6c6572206973206e6f74206f7760008201527f6e6572206e6f7220617070726f76656420666f7220616c6c0000000000000000602082015250565b6000612def603883612512565b9150612dfa82612d93565b604082019050919050565b60006020820190508181036000830152612e1e81612de2565b9050919050565b7f4552433732313a207472616e736665722063616c6c6572206973206e6f74206f60008201527f776e6572206e6f7220617070726f766564000000000000000000000000000000602082015250565b6000612e81603183612512565b9150612e8c82612e25565b604082019050919050565b60006020820190508181036000830152612eb081612e74565b9050919050565b7f4e487b7100000000000000000000000000000000000000000000000000000000600052601160045260246000fd5b6000612ef1826123f6565b9150612efc836123f6565b9250827fffffffffffffffffffffffffffffffffffffffffffffffffffffffffffffffff03821115612f3157612f30612eb7565b5b828201905092915050565b6000604082019050612f516000830185612400565b8181036020830152612f638184612567565b90509392505050565b7f4552433732313a206f776e657220717565727920666f72206e6f6e657869737460008201527f656e7420746f6b656e0000000000000000000000000000000000000000000000602082015250565b6000612fc8602983612512565b9150612fd382612f6c565b604082019050919050565b60006020820190508181036000830152612ff781612fbb565b9050919050565b7f4552433732313a2062616c616e636520717565727920666f7220746865207a6560008201527f726f206164647265737300000000000000000000000000000000000000000000602082015250565b600061305a602a83612512565b915061306582612ffe565b604082019050919050565b600060208201905081810360008301526130898161304d565b9050919050565b7f4f776e61626c653a2063616c6c6572206973206e6f7420746865206f776e6572600082015250565b60006130c6602083612512565b91506130d182613090565b602082019050919050565b600060208201905081810360008301526130f5816130b9565b9050919050565b7f4552433732313a20617070726f766520746f2063616c6c657200000000000000600082015250565b6000613132601983612512565b915061313d826130fc565b602082019050919050565b6000602082019050818103600083015261316181613125565b9050919050565b7f546f6b656e206e6f7420666f756e640000000000000000000000000000000000600082015250565b600061319e600f83612512565b91506131a982613168565b602082019050919050565b600060208201905081810360008301526131cd81613191565b9050919050565b7f45524337323155524953746f726167653a2055524920717565727920666f722060008201527f6e6f6e6578697374656e7420746f6b656e000000000000000000000000000000602082015250565b6000613230603183612512565b915061323b826131d4565b604082019050919050565b6000602082019050818103600083015261325f81613223565b9050919050565b600081905092915050565b600061327c82612507565b6132868185613266565b9350613296818560208601612523565b80840191505092915050565b60006132ae8285613271565b91506132ba8284613271565b91508190509392505050565b7f4e6f7420656e6f75676820666f72207072696365000000000000000000000000600082015250565b60006132fc601483612512565b9150613307826132c6565b602082019050919050565b6000602082019050818103600083015261332b816132ef565b9050919050565b7f4661696c656420746f2073656e64000000000000000000000000000000000000600082015250565b6000613368600e83612512565b915061337382613332565b602082019050919050565b600060208201905081810360008301526133978161335b565b9050919050565b7f4e487b7100000000000000000000000000000000000000000000000000000000600052603260045260246000fd5b60006133d8826123f6565b91507fffffffffffffffffffffffffffffffffffffffffffffffffffffffffffffffff82141561340b5761340a612eb7565b5b600182019050919050565b6000819050919050565b600061343b613436613431846123b5565b613416565b6123b5565b9050919050565b600061344d82613420565b9050919050565b600061345f82613442565b9050919050565b61346f81613454565b82525050565b600060608201905061348a6000830186613466565b61349760208301856123e7565b6134a46040830184612400565b949350505050565b7f4f6e6c79206f776e65722063616e207365742074686520707269636500000000600082015250565b60006134e2601c83612512565b91506134ed826134ac565b602082019050919050565b60006020820190508181036000830152613511816134d5565b9050919050565b7f4f776e61626c653a206e6577206f776e657220697320746865207a65726f206160008201527f6464726573730000000000000000000000000000000000000000000000000000602082015250565b6000613574602683612512565b915061357f82613518565b604082019050919050565b600060208201905081810360008301526135a381613567565b9050919050565b7f4552433732313a206f70657261746f7220717565727920666f72206e6f6e657860008201527f697374656e7420746f6b656e0000000000000000000000000000000000000000602082015250565b6000613606602c83612512565b9150613611826135aa565b604082019050919050565b60006020820190508181036000830152613635816135f9565b9050919050565b7f4552433732313a207472616e73666572206f6620746f6b656e2074686174206960008201527f73206e6f74206f776e0000000000000000000000000000000000000000000000602082015250565b6000613698602983612512565b91506136a38261363c565b604082019050919050565b600060208201905081810360008301526136c78161368b565b9050919050565b7f4552433732313a207472616e7366657220746f20746865207a65726f2061646460008201527f7265737300000000000000000000000000000000000000000000000000000000602082015250565b600061372a602483612512565b9150613735826136ce565b604082019050919050565b600060208201905081810360008301526137598161371d565b9050919050565b600061376b826123f6565b9150613776836123f6565b92508282101561378957613788612eb7565b5b828203905092915050565b7f4552433732313a206d696e7420746f20746865207a65726f2061646472657373600082015250565b60006137ca602083612512565b91506137d582613794565b602082019050919050565b600060208201905081810360008301526137f9816137bd565b9050919050565b7f4552433732313a20746f6b656e20616c7265616479206d696e74656400000000600082015250565b6000613836601c83612512565b915061384182613800565b602082019050919050565b6000602082019050818103600083015261386581613829565b9050919050565b7f45524337323155524953746f726167653a2055524920736574206f66206e6f6e60008201527f6578697374656e7420746f6b656e000000000000000000000000000000000000602082015250565b60006138c8602e83612512565b91506138d38261386c565b604082019050919050565b600060208201905081810360008301526138f7816138bb565b9050919050565b7f4552433732313a207472616e7366657220746f206e6f6e20455243373231526560008201527f63656976657220696d706c656d656e7465720000000000000000000000000000602082015250565b600061395a603283612512565b9150613965826138fe565b604082019050919050565b600060208201905081810360008301526139898161394d565b9050919050565b7f4552433732314d657461646174613a2055524920717565727920666f72206e6f60008201527f6e6578697374656e7420746f6b656e0000000000000000000000000000000000602082015250565b60006139ec602f83612512565b91506139f782613990565b604082019050919050565b60006020820190508181036000830152613a1b816139df565b9050919050565b600081519050919050565b600082825260208201905092915050565b6000613a4982613a22565b613a538185613a2d565b9350613a63818560208601612523565b613a6c81612556565b840191505092915050565b6000608082019050613a8c60008301876123e7565b613a9960208301866123e7565b613aa66040830185612400565b8181036060830152613ab88184613a3e565b905095945050505050565b600081519050613ad281612478565b92915050565b600060208284031215613aee57613aed612442565b5b6000613afc84828501613ac3565b91505092915050565b7f4e487b7100000000000000000000000000000000000000000000000000000000600052601260045260246000fd5b6000613b3f826123f6565b9150613b4a836123f6565b925082613b5a57613b59613b05565b5b828204905092915050565b6000613b70826123f6565b9150613b7b836123f6565b925082613b8b57613b8a613b05565b5b82820690509291505056fea264697066735822122034d2a34890eeb98582796fd8b0bd0ba0251e84daec54bdf2b676c9cb5396ed8864736f6c63430008090033",
  "immutableReferences": {},
  "source": "pragma solidity 0.8.9;\n\nimport \"@openzeppelin/contracts/token/ERC721/ERC721.sol\";\nimport \"@openzeppelin/contracts/token/ERC721/extensions/ERC721URIStorage.sol\";\nimport \"@openzeppelin/contracts/utils/Counters.sol\";\nimport \"@openzeppelin/contracts/access/Ownable.sol\";\n\n/**\n  Nft Trading contract inherited from ERC721 token\n  It allows token creation, reset token price and buy token from others.\n*/\ncontract SimpleCollectible is ERC721URIStorage, Ownable {\n    event TokenCreated(uint256 tokenId, string uri);\n    event NftBought(address _seller, address _buyer, uint256 _price);\n    event Received(address, uint);\n\n    struct Item {\n        uint id;\n        uint price;\n        address payable owner;\n    }\n\n    Item[] items;\n    mapping (uint => Item) internal itemMap;\n    uint256 defaultTokenPrice = 5;\n\n    using Counters for Counters.Counter;\n    Counters.Counter private _tokenIds;\n\n    modifier tokenExists(uint256 tokenId) {\n        require(itemMap[tokenId].id > 0, 'Token not found');\n        _;\n    }\n\n    constructor() ERC721(\"Factory NFT\", \"FTN\") {\n    }\n\n    function createToken(string memory tokenURI) public {\n        _tokenIds.increment();\n        uint256 newItemId = _tokenIds.current() + 10000;\n\n        _mint(msg.sender, newItemId);\n        _setTokenURI(newItemId, tokenURI);\n\n        Item memory newItem = Item({\n            id: newItemId,\n            price: defaultTokenPrice,\n            owner: payable(msg.sender)\n        });\n        items.push(newItem);\n        itemMap[newItemId] = newItem;\n\n        emit TokenCreated(newItemId, tokenURI);\n    }\n\n    function setTokenPrice(uint256 tokenId, uint256 price) public tokenExists(tokenId) {\n        require(msg.sender == ownerOf(tokenId), 'Only owner can set the price');\n\n        //both array and map needs to be updated\n        itemMap[tokenId].price = price;\n        for (uint i=0; i<items.length; ++i) {\n            if(items[i].id == tokenId) {\n                items[i].price = price;\n            }\n        }\n    }\n\n    function getTokenPrice(uint256 tokenId) public view tokenExists(tokenId) returns(uint256) {\n        return itemMap[tokenId].price;\n    }\n\n    function getItems() public view returns (Item[] memory) {\n        return items;\n    }\n\n    function buy(uint256 tokenId) external payable {\n        //use storage to indicate reference instead of copy by value\n        Item storage curItem = itemMap[tokenId];\n        uint price = curItem.price;\n        address payable curOwner = curItem.owner;\n\n        require(msg.value >= price, 'Not enough for price');\n\n        bool sent = curOwner.send(price);\n        require(sent, \"Failed to send\");\n\n        _transfer(curOwner, msg.sender, tokenId);\n        address payable newOwner = payable(msg.sender);\n        curItem.owner = newOwner;\n        for (uint i=0; i<items.length; ++i) {\n            if(items[i].id == tokenId) {\n                items[i].owner = newOwner;\n            }\n        }\n\n        emit NftBought(curOwner, msg.sender, msg.value);\n    }\n\n    //In case contract want to store extra amount\n    receive() external payable {\n        emit Received(msg.sender, msg.value);\n    }\n}",
  "sourcePath": "/Users/yuzhu/git/self/blockchain-developer-bootcamp-final-project/contracts/SimpleCollectible.sol",
  "compiler": {
    "name": "solc",
    "version": "0.8.9+commit.e5eed63a.Emscripten.clang"
  },
  "schemaVersion": "3.4.3",
  "updatedAt": "2021-11-17T05:17:49.758Z",
  "devdoc": {
    "kind": "dev",
    "methods": {
      "approve(address,uint256)": {
        "details": "See {IERC721-approve}."
      },
      "balanceOf(address)": {
        "details": "See {IERC721-balanceOf}."
      },
      "getApproved(uint256)": {
        "details": "See {IERC721-getApproved}."
      },
      "isApprovedForAll(address,address)": {
        "details": "See {IERC721-isApprovedForAll}."
      },
      "name()": {
        "details": "See {IERC721Metadata-name}."
      },
      "owner()": {
        "details": "Returns the address of the current owner."
      },
      "ownerOf(uint256)": {
        "details": "See {IERC721-ownerOf}."
      },
      "renounceOwnership()": {
        "details": "Leaves the contract without owner. It will not be possible to call `onlyOwner` functions anymore. Can only be called by the current owner. NOTE: Renouncing ownership will leave the contract without an owner, thereby removing any functionality that is only available to the owner."
      },
      "safeTransferFrom(address,address,uint256)": {
        "details": "See {IERC721-safeTransferFrom}."
      },
      "safeTransferFrom(address,address,uint256,bytes)": {
        "details": "See {IERC721-safeTransferFrom}."
      },
      "setApprovalForAll(address,bool)": {
        "details": "See {IERC721-setApprovalForAll}."
      },
      "supportsInterface(bytes4)": {
        "details": "See {IERC165-supportsInterface}."
      },
      "symbol()": {
        "details": "See {IERC721Metadata-symbol}."
      },
      "tokenURI(uint256)": {
        "details": "See {IERC721Metadata-tokenURI}."
      },
      "transferFrom(address,address,uint256)": {
        "details": "See {IERC721-transferFrom}."
      },
      "transferOwnership(address)": {
        "details": "Transfers ownership of the contract to a new account (`newOwner`). Can only be called by the current owner."
      }
    },
    "version": 1
  },
  "userdoc": {
    "kind": "user",
    "methods": {},
    "notice": "Nft Trading contract inherited from ERC721 token It allows token creation, reset token price and buy token from others.",
    "version": 1
  }
}